{
  "_format": "hh-sol-artifact-1",
  "contractName": "AccessList",
  "sourceName": "contracts/accesslists/AccessList.sol",
  "abi": [
    {
      "inputs": [
        {
          "internalType": "string",
          "name": "_name",
          "type": "string"
        },
        {
          "internalType": "string",
          "name": "_symbol",
          "type": "string"
        }
      ],
      "stateMutability": "nonpayable",
      "type": "constructor"
    },
    {
      "anonymous": false,
      "inputs": [
        {
          "indexed": true,
          "internalType": "address",
          "name": "wallet",
          "type": "address"
        },
        {
          "indexed": false,
          "internalType": "uint256",
          "name": "tokenId",
          "type": "uint256"
        }
      ],
      "name": "AddressAdded",
      "type": "event"
    },
    {
      "anonymous": false,
      "inputs": [
        {
          "indexed": false,
          "internalType": "uint256",
          "name": "tokenId",
          "type": "uint256"
        }
      ],
      "name": "AddressRemoved",
      "type": "event"
    },
    {
      "anonymous": false,
      "inputs": [
        {
          "indexed": true,
          "internalType": "address",
          "name": "owner",
          "type": "address"
        },
        {
          "indexed": true,
          "internalType": "address",
          "name": "approved",
          "type": "address"
        },
        {
          "indexed": true,
          "internalType": "uint256",
          "name": "tokenId",
          "type": "uint256"
        }
      ],
      "name": "Approval",
      "type": "event"
    },
    {
      "anonymous": false,
      "inputs": [
        {
          "indexed": true,
          "internalType": "address",
          "name": "owner",
          "type": "address"
        },
        {
          "indexed": true,
          "internalType": "address",
          "name": "operator",
          "type": "address"
        },
        {
          "indexed": false,
          "internalType": "bool",
          "name": "approved",
          "type": "bool"
        }
      ],
      "name": "ApprovalForAll",
      "type": "event"
    },
    {
      "anonymous": false,
      "inputs": [
        {
          "indexed": false,
          "internalType": "uint256",
          "name": "_fromTokenId",
          "type": "uint256"
        },
        {
          "indexed": false,
          "internalType": "uint256",
          "name": "_toTokenId",
          "type": "uint256"
        }
      ],
      "name": "BatchMetadataUpdate",
      "type": "event"
    },
    {
      "anonymous": false,
      "inputs": [
        {
          "indexed": false,
          "internalType": "uint256",
          "name": "_tokenId",
          "type": "uint256"
        }
      ],
      "name": "MetadataUpdate",
      "type": "event"
    },
    {
      "anonymous": false,
      "inputs": [
        {
          "indexed": true,
          "internalType": "address",
          "name": "contractAddress",
          "type": "address"
        },
        {
          "indexed": true,
          "internalType": "address",
          "name": "owner",
          "type": "address"
        }
      ],
      "name": "NewAccessList",
      "type": "event"
    },
    {
      "anonymous": false,
      "inputs": [
        {
          "indexed": true,
          "internalType": "address",
          "name": "previousOwner",
          "type": "address"
        },
        {
          "indexed": true,
          "internalType": "address",
          "name": "newOwner",
          "type": "address"
        }
      ],
      "name": "OwnershipTransferred",
      "type": "event"
    },
    {
      "anonymous": false,
      "inputs": [
        {
          "indexed": true,
          "internalType": "address",
          "name": "from",
          "type": "address"
        },
        {
          "indexed": true,
          "internalType": "address",
          "name": "to",
          "type": "address"
        },
        {
          "indexed": true,
          "internalType": "uint256",
          "name": "tokenId",
          "type": "uint256"
        }
      ],
      "name": "Transfer",
      "type": "event"
    },
    {
      "inputs": [
        {
          "internalType": "address",
          "name": "to",
          "type": "address"
        },
        {
          "internalType": "uint256",
          "name": "tokenId",
          "type": "uint256"
        }
      ],
      "name": "approve",
      "outputs": [],
      "stateMutability": "nonpayable",
      "type": "function"
    },
    {
      "inputs": [
        {
          "internalType": "address",
          "name": "owner",
          "type": "address"
        }
      ],
      "name": "balanceOf",
      "outputs": [
        {
          "internalType": "uint256",
          "name": "",
          "type": "uint256"
        }
      ],
      "stateMutability": "view",
      "type": "function"
    },
    {
      "inputs": [
        {
          "internalType": "address[]",
          "name": "user",
          "type": "address[]"
        },
        {
          "internalType": "string[]",
          "name": "_tokenURI",
          "type": "string[]"
        }
      ],
      "name": "batchMint",
      "outputs": [],
      "stateMutability": "nonpayable",
      "type": "function"
    },
    {
      "inputs": [
        {
          "internalType": "uint256",
          "name": "tokenId",
          "type": "uint256"
        }
      ],
      "name": "burn",
      "outputs": [],
      "stateMutability": "nonpayable",
      "type": "function"
    },
    {
      "inputs": [
        {
          "internalType": "uint256",
          "name": "tokenId",
          "type": "uint256"
        }
      ],
      "name": "getApproved",
      "outputs": [
        {
          "internalType": "address",
          "name": "",
          "type": "address"
        }
      ],
      "stateMutability": "view",
      "type": "function"
    },
    {
      "inputs": [
        {
          "internalType": "address",
          "name": "owner",
          "type": "address"
        },
        {
          "internalType": "address",
          "name": "operator",
          "type": "address"
        }
      ],
      "name": "isApprovedForAll",
      "outputs": [
        {
          "internalType": "bool",
          "name": "",
          "type": "bool"
        }
      ],
      "stateMutability": "view",
      "type": "function"
    },
    {
      "inputs": [
        {
          "internalType": "address",
          "name": "user",
          "type": "address"
        },
        {
          "internalType": "string",
          "name": "_tokenURI",
          "type": "string"
        }
      ],
      "name": "mint",
      "outputs": [
        {
          "internalType": "uint256",
          "name": "",
          "type": "uint256"
        }
      ],
      "stateMutability": "nonpayable",
      "type": "function"
    },
    {
      "inputs": [],
      "name": "name",
      "outputs": [
        {
          "internalType": "string",
          "name": "",
          "type": "string"
        }
      ],
      "stateMutability": "view",
      "type": "function"
    },
    {
      "inputs": [],
      "name": "owner",
      "outputs": [
        {
          "internalType": "address",
          "name": "",
          "type": "address"
        }
      ],
      "stateMutability": "view",
      "type": "function"
    },
    {
      "inputs": [
        {
          "internalType": "uint256",
          "name": "tokenId",
          "type": "uint256"
        }
      ],
      "name": "ownerOf",
      "outputs": [
        {
          "internalType": "address",
          "name": "",
          "type": "address"
        }
      ],
      "stateMutability": "view",
      "type": "function"
    },
    {
      "inputs": [],
      "name": "renounceOwnership",
      "outputs": [],
      "stateMutability": "nonpayable",
      "type": "function"
    },
    {
      "inputs": [
        {
          "internalType": "address",
          "name": "from",
          "type": "address"
        },
        {
          "internalType": "address",
          "name": "to",
          "type": "address"
        },
        {
          "internalType": "uint256",
          "name": "tokenId",
          "type": "uint256"
        }
      ],
      "name": "safeTransferFrom",
      "outputs": [],
      "stateMutability": "nonpayable",
      "type": "function"
    },
    {
      "inputs": [
        {
          "internalType": "address",
          "name": "from",
          "type": "address"
        },
        {
          "internalType": "address",
          "name": "to",
          "type": "address"
        },
        {
          "internalType": "uint256",
          "name": "tokenId",
          "type": "uint256"
        },
        {
          "internalType": "bytes",
          "name": "data",
          "type": "bytes"
        }
      ],
      "name": "safeTransferFrom",
      "outputs": [],
      "stateMutability": "nonpayable",
      "type": "function"
    },
    {
      "inputs": [
        {
          "internalType": "address",
          "name": "operator",
          "type": "address"
        },
        {
          "internalType": "bool",
          "name": "approved",
          "type": "bool"
        }
      ],
      "name": "setApprovalForAll",
      "outputs": [],
      "stateMutability": "nonpayable",
      "type": "function"
    },
    {
      "inputs": [
        {
          "internalType": "bytes4",
          "name": "interfaceId",
          "type": "bytes4"
        }
      ],
      "name": "supportsInterface",
      "outputs": [
        {
          "internalType": "bool",
          "name": "",
          "type": "bool"
        }
      ],
      "stateMutability": "view",
      "type": "function"
    },
    {
      "inputs": [],
      "name": "symbol",
      "outputs": [
        {
          "internalType": "string",
          "name": "",
          "type": "string"
        }
      ],
      "stateMutability": "view",
      "type": "function"
    },
    {
      "inputs": [
        {
          "internalType": "uint256",
          "name": "index",
          "type": "uint256"
        }
      ],
      "name": "tokenByIndex",
      "outputs": [
        {
          "internalType": "uint256",
          "name": "",
          "type": "uint256"
        }
      ],
      "stateMutability": "view",
      "type": "function"
    },
    {
      "inputs": [
        {
          "internalType": "address",
          "name": "owner",
          "type": "address"
        },
        {
          "internalType": "uint256",
          "name": "index",
          "type": "uint256"
        }
      ],
      "name": "tokenOfOwnerByIndex",
      "outputs": [
        {
          "internalType": "uint256",
          "name": "",
          "type": "uint256"
        }
      ],
      "stateMutability": "view",
      "type": "function"
    },
    {
      "inputs": [
        {
          "internalType": "uint256",
          "name": "tokenId",
          "type": "uint256"
        }
      ],
      "name": "tokenURI",
      "outputs": [
        {
          "internalType": "string",
          "name": "",
          "type": "string"
        }
      ],
      "stateMutability": "view",
      "type": "function"
    },
    {
      "inputs": [],
      "name": "totalSupply",
      "outputs": [
        {
          "internalType": "uint256",
          "name": "",
          "type": "uint256"
        }
      ],
      "stateMutability": "view",
      "type": "function"
    },
    {
      "inputs": [
        {
          "internalType": "address",
          "name": "from",
          "type": "address"
        },
        {
          "internalType": "address",
          "name": "to",
          "type": "address"
        },
        {
          "internalType": "uint256",
          "name": "tokenId",
          "type": "uint256"
        }
      ],
      "name": "transferFrom",
      "outputs": [],
      "stateMutability": "nonpayable",
      "type": "function"
    },
    {
      "inputs": [
        {
          "internalType": "address",
          "name": "newOwner",
          "type": "address"
        }
      ],
      "name": "transferOwnership",
      "outputs": [],
      "stateMutability": "nonpayable",
      "type": "function"
    }
  ],
  "bytecode": "0x608060405234801561001057600080fd5b5060405161250e38038061250e83398101604081905261002f916101ad565b818161003a336100a4565b6001610046838261029f565b506002610053828261029f565b5061005e9150503390565b6001600160a01b0316306001600160a01b03167fd65bc8e3024bbad886df74eea79b6e118b7fbcffe1f3f98054e5a6b98dc8389160405160405180910390a3505061035d565b600080546001600160a01b038381166001600160a01b0319831681178455604051919092169283917f8be0079c531659141344cd1fd0a4f28419497f9722a3daafe3b4186f6b6457e09190a35050565b634e487b7160e01b600052604160045260246000fd5b600082601f83011261011b57600080fd5b81516001600160401b03811115610134576101346100f4565b604051601f8201601f19908116603f011681016001600160401b0381118282101715610162576101626100f4565b60405281815283820160200185101561017a57600080fd5b60005b828110156101995760208186018101518383018201520161017d565b506000918101602001919091529392505050565b600080604083850312156101c057600080fd5b82516001600160401b038111156101d657600080fd5b6101e28582860161010a565b602085015190935090506001600160401b0381111561020057600080fd5b61020c8582860161010a565b9150509250929050565b600181811c9082168061022a57607f821691505b60208210810361024a57634e487b7160e01b600052602260045260246000fd5b50919050565b601f82111561029a57806000526020600020601f840160051c810160208510156102775750805b601f840160051c820191505b818110156102975760008155600101610283565b50505b505050565b81516001600160401b038111156102b8576102b86100f4565b6102cc816102c68454610216565b84610250565b6020601f82116001811461030057600083156102e85750848201515b600019600385901b1c1916600184901b178455610297565b600084815260208120601f198516915b828110156103305787850151825560209485019460019092019101610310565b508482101561034e5786840151600019600387901b60f8161c191681555b50505050600190811b01905550565b6121a28061036c6000396000f3fe608060405234801561001057600080fd5b50600436106101425760003560e01c806364ba144e116100b8578063a22cb4651161007c578063a22cb4651461028f578063b88d4fde146102a2578063c87b56dd146102b5578063d0def521146102c8578063e985e9c5146102db578063f2fde38b1461031757600080fd5b806364ba144e1461024857806370a082311461025b578063715018a61461026e5780638da5cb5b1461027657806395d89b411461028757600080fd5b806323b872dd1161010a57806323b872dd146101d65780632f745c59146101e957806342842e0e146101fc57806342966c681461020f5780634f6ccce7146102225780636352211e1461023557600080fd5b806301ffc9a71461014757806306fdde031461016f578063081812fc14610184578063095ea7b3146101af57806318160ddd146101c4575b600080fd5b61015a6101553660046119ca565b61032a565b60405190151581526020015b60405180910390f35b61017761033b565b6040516101669190611a37565b610197610192366004611a4a565b6103cd565b6040516001600160a01b039091168152602001610166565b6101c26101bd366004611a7f565b6103f4565b005b6009545b604051908152602001610166565b6101c26101e4366004611aa9565b61050e565b6101c86101f7366004611a7f565b61053f565b6101c261020a366004611aa9565b6105d5565b6101c261021d366004611a4a565b6105f0565b6101c8610230366004611a4a565b61069e565b610197610243366004611a4a565b610731565b6101c2610256366004611c5f565b610791565b6101c8610269366004611d28565b6107fb565b6101c2610881565b6000546001600160a01b0316610197565b610177610895565b6101c261029d366004611d43565b6108a4565b6101c26102b0366004611d7f565b6108b3565b6101776102c3366004611a4a565b6108eb565b6101c86102d6366004611dfb565b6108f6565b61015a6102e9366004611e3f565b6001600160a01b03918216600090815260066020908152604080832093909416825291909152205460ff1690565b6101c2610325366004611d28565b610911565b600061033582610987565b92915050565b60606001805461034a90611e72565b80601f016020809104026020016040519081016040528092919081815260200182805461037690611e72565b80156103c35780601f10610398576101008083540402835291602001916103c3565b820191906000526020600020905b8154815290600101906020018083116103a657829003601f168201915b5050505050905090565b60006103d8826109ac565b506000908152600560205260409020546001600160a01b031690565b60006103ff82610731565b9050806001600160a01b0316836001600160a01b0316036104715760405162461bcd60e51b815260206004820152602160248201527f4552433732313a20617070726f76616c20746f2063757272656e74206f776e656044820152603960f91b60648201526084015b60405180910390fd5b336001600160a01b038216148061048d575061048d81336102e9565b6104ff5760405162461bcd60e51b815260206004820152603d60248201527f4552433732313a20617070726f76652063616c6c6572206973206e6f7420746f60448201527f6b656e206f776e6572206f7220617070726f76656420666f7220616c6c0000006064820152608401610468565b6105098383610a0b565b505050565b6105183382610a79565b6105345760405162461bcd60e51b815260040161046890611eac565b610509838383610af8565b600061054a836107fb565b82106105ac5760405162461bcd60e51b815260206004820152602b60248201527f455243373231456e756d657261626c653a206f776e657220696e646578206f7560448201526a74206f6620626f756e647360a81b6064820152608401610468565b506001600160a01b03919091166000908152600760209081526040808320938352929052205490565b610509838383604051806020016040528060008152506108b3565b6000546001600160a01b031633148061061f57506000818152600360205260409020546001600160a01b031633145b61065f5760405162461bcd60e51b815260206004820152601160248201527022a9219b99189d102737ba1037bbb732b960791b6044820152606401610468565b6040518181527fb1e731889e7185f2cc895a86c70cded99d77ab8ecea58ab5abe5d43b084f51ae9060200160405180910390a161069b81610c69565b50565b60006106a960095490565b821061070c5760405162461bcd60e51b815260206004820152602c60248201527f455243373231456e756d657261626c653a20676c6f62616c20696e646578206f60448201526b7574206f6620626f756e647360a01b6064820152608401610468565b6009828154811061071f5761071f611ef9565b90600052602060002001549050919050565b6000818152600360205260408120546001600160a01b0316806103355760405162461bcd60e51b8152602060048201526018602482015277115490cdcc8c4e881a5b9d985b1a59081d1bdad95b88125160421b6044820152606401610468565b610799610c72565b600081518351146107a957600080fd5b5060005b8251811015610509576107f28382815181106107cb576107cb611ef9565b60200260200101518383815181106107e5576107e5611ef9565b6020026020010151610ccc565b506001016107ad565b60006001600160a01b0382166108655760405162461bcd60e51b815260206004820152602960248201527f4552433732313a2061646472657373207a65726f206973206e6f7420612076616044820152683634b21037bbb732b960b91b6064820152608401610468565b506001600160a01b031660009081526004602052604090205490565b610889610c72565b6108936000610d40565b565b60606002805461034a90611e72565b6108af338383610d90565b5050565b6108bd3383610a79565b6108d95760405162461bcd60e51b815260040161046890611eac565b6108e584848484610e5e565b50505050565b606061033582610e91565b6000610900610c72565b61090a8383610ccc565b9392505050565b610919610c72565b6001600160a01b03811661097e5760405162461bcd60e51b815260206004820152602660248201527f4f776e61626c653a206e6577206f776e657220697320746865207a65726f206160448201526564647265737360d01b6064820152608401610468565b61069b81610d40565b60006001600160e01b03198216632483248360e11b1480610335575061033582610f99565b6000818152600360205260409020546001600160a01b031661069b5760405162461bcd60e51b8152602060048201526018602482015277115490cdcc8c4e881a5b9d985b1a59081d1bdad95b88125160421b6044820152606401610468565b600081815260056020526040902080546001600160a01b0319166001600160a01b0384169081179091558190610a4082610731565b6001600160a01b03167f8c5be1e5ebec7d5bd14f71427d1e84f3dd0314c0f7b2291e5b200ac8c7c3b92560405160405180910390a45050565b600080610a8583610731565b9050806001600160a01b0316846001600160a01b03161480610acc57506001600160a01b0380821660009081526006602090815260408083209388168352929052205460ff165b80610af05750836001600160a01b0316610ae5846103cd565b6001600160a01b0316145b949350505050565b826001600160a01b0316610b0b82610731565b6001600160a01b031614610b315760405162461bcd60e51b815260040161046890611f0f565b6001600160a01b038216610b935760405162461bcd60e51b8152602060048201526024808201527f4552433732313a207472616e7366657220746f20746865207a65726f206164646044820152637265737360e01b6064820152608401610468565b610ba08383836001610fbe565b826001600160a01b0316610bb382610731565b6001600160a01b031614610bd95760405162461bcd60e51b815260040161046890611f0f565b600081815260056020908152604080832080546001600160a01b03199081169091556001600160a01b0387811680865260048552838620805460001901905590871680865283862080546001019055868652600390945282852080549092168417909155905184937fddf252ad1be2c89b69c2b068fc378daa952ba7f163c4a11628f55a4df523b3ef91a4505050565b61069b8161102c565b6000546001600160a01b031633146108935760405162461bcd60e51b815260206004820181905260248201527f4f776e61626c653a2063616c6c6572206973206e6f7420746865206f776e65726044820152606401610468565b6000610cdc600c80546001019055565b6000610ce7600c5490565b9050836001600160a01b03167f9cc987676e7d63379f176ea50df0ae8d2d9d1141d1231d4ce15b5965f73c943082604051610d2491815260200190565b60405180910390a2610d36848261106c565b61090a8184611205565b600080546001600160a01b038381166001600160a01b0319831681178455604051919092169283917f8be0079c531659141344cd1fd0a4f28419497f9722a3daafe3b4186f6b6457e09190a35050565b816001600160a01b0316836001600160a01b031603610df15760405162461bcd60e51b815260206004820152601960248201527f4552433732313a20617070726f766520746f2063616c6c6572000000000000006044820152606401610468565b6001600160a01b03838116600081815260066020908152604080832094871680845294825291829020805460ff191686151590811790915591519182527f17307eab39ab6107e8899845ad3d59bd9653f200f220920489ca2b5937696c31910160405180910390a3505050565b610e69848484610af8565b610e75848484846112d0565b6108e55760405162461bcd60e51b815260040161046890611f54565b6060610e9c826109ac565b6000828152600b602052604081208054610eb590611e72565b80601f0160208091040260200160405190810160405280929190818152602001828054610ee190611e72565b8015610f2e5780601f10610f0357610100808354040283529160200191610f2e565b820191906000526020600020905b815481529060010190602001808311610f1157829003601f168201915b505050505090506000610f4c60408051602081019091526000815290565b90508051600003610f5e575092915050565b815115610f90578082604051602001610f78929190611fa6565b60405160208183030381529060405292505050919050565b610af0846113d1565b60006001600160e01b0319821663780e9d6360e01b1480610335575061033582611444565b6001600160a01b0384161580610fdb57506001600160a01b038316155b6110205760405162461bcd60e51b8152602060048201526016602482015275546f6b656e206e6f74207472616e7366657261626c6560501b6044820152606401610468565b6108e584848484611494565b611035816115c8565b6000818152600b60205260409020805461104e90611e72565b15905061069b576000818152600b6020526040812061069b91611966565b6001600160a01b0382166110c25760405162461bcd60e51b815260206004820181905260248201527f4552433732313a206d696e7420746f20746865207a65726f20616464726573736044820152606401610468565b6000818152600360205260409020546001600160a01b0316156111275760405162461bcd60e51b815260206004820152601c60248201527f4552433732313a20746f6b656e20616c7265616479206d696e746564000000006044820152606401610468565b611135600083836001610fbe565b6000818152600360205260409020546001600160a01b03161561119a5760405162461bcd60e51b815260206004820152601c60248201527f4552433732313a20746f6b656e20616c7265616479206d696e746564000000006044820152606401610468565b6001600160a01b038216600081815260046020908152604080832080546001019055848352600390915280822080546001600160a01b0319168417905551839291907fddf252ad1be2c89b69c2b068fc378daa952ba7f163c4a11628f55a4df523b3ef908290a45050565b6000828152600360205260409020546001600160a01b03166112805760405162461bcd60e51b815260206004820152602e60248201527f45524337323155524953746f726167653a2055524920736574206f66206e6f6e60448201526d32bc34b9ba32b73a103a37b5b2b760911b6064820152608401610468565b6000828152600b60205260409020611298828261201c565b506040518281527ff8e1a15aba9398e019f0b49df1a4fde98ee17ae345cb5f6b5e2c27f5033e8ce79060200160405180910390a15050565b60006001600160a01b0384163b156113c657604051630a85bd0160e11b81526001600160a01b0385169063150b7a02906113149033908990889088906004016120db565b6020604051808303816000875af192505050801561134f575060408051601f3d908101601f1916820190925261134c91810190612118565b60015b6113ac573d80801561137d576040519150601f19603f3d011682016040523d82523d6000602084013e611382565b606091505b5080516000036113a45760405162461bcd60e51b815260040161046890611f54565b805181602001fd5b6001600160e01b031916630a85bd0160e11b149050610af0565b506001949350505050565b60606113dc826109ac565b60006113f360408051602081019091526000815290565b90506000815111611413576040518060200160405280600081525061090a565b8061141d8461166b565b60405160200161142e929190611fa6565b6040516020818303038152906040529392505050565b60006001600160e01b031982166380ac58cd60e01b148061147557506001600160e01b03198216635b5e139f60e01b145b8061033557506301ffc9a760e01b6001600160e01b0319831614610335565b60018111156115035760405162461bcd60e51b815260206004820152603560248201527f455243373231456e756d657261626c653a20636f6e7365637574697665207472604482015274185b9cd9995c9cc81b9bdd081cdd5c1c1bdc9d1959605a1b6064820152608401610468565b816001600160a01b03851661155f5761155a81600980546000838152600a60205260408120829055600182018355919091527f6e1540171b6c0c960b71a7020d9f60077f6af931a8bbf590da0223dacf75c7af0155565b611582565b836001600160a01b0316856001600160a01b0316146115825761158285826116fe565b6001600160a01b03841661159e576115998161179b565b6115c1565b846001600160a01b0316846001600160a01b0316146115c1576115c1848261184a565b5050505050565b60006115d382610731565b90506115e3816000846001610fbe565b6115ec82610731565b600083815260056020908152604080832080546001600160a01b03199081169091556001600160a01b0385168085526004845282852080546000190190558785526003909352818420805490911690555192935084927fddf252ad1be2c89b69c2b068fc378daa952ba7f163c4a11628f55a4df523b3ef908390a45050565b606060006116788361188e565b600101905060008167ffffffffffffffff81111561169857611698611ae6565b6040519080825280601f01601f1916602001820160405280156116c2576020820181803683370190505b5090508181016020015b600019016f181899199a1a9b1b9c1cb0b131b232b360811b600a86061a8153600a85049450846116cc57509392505050565b6000600161170b846107fb565b6117159190612135565b600083815260086020526040902054909150808214611768576001600160a01b03841660009081526007602090815260408083208584528252808320548484528184208190558352600890915290208190555b5060009182526008602090815260408084208490556001600160a01b039094168352600781528383209183525290812055565b6009546000906117ad90600190612135565b6000838152600a6020526040812054600980549394509092849081106117d5576117d5611ef9565b9060005260206000200154905080600983815481106117f6576117f6611ef9565b6000918252602080832090910192909255828152600a9091526040808220849055858252812055600980548061182e5761182e612156565b6001900381819060005260206000200160009055905550505050565b6000611855836107fb565b6001600160a01b039093166000908152600760209081526040808320868452825280832085905593825260089052919091209190915550565b60008072184f03e93ff9f4daa797ed6e38ed64bf6a1f0160401b83106118cd5772184f03e93ff9f4daa797ed6e38ed64bf6a1f0160401b830492506040015b6d04ee2d6d415b85acef810000000083106118f9576d04ee2d6d415b85acef8100000000830492506020015b662386f26fc10000831061191757662386f26fc10000830492506010015b6305f5e100831061192f576305f5e100830492506008015b612710831061194357612710830492506004015b60648310611955576064830492506002015b600a83106103355760010192915050565b50805461197290611e72565b6000825580601f10611982575050565b601f01602090049060005260206000209081019061069b91905b808211156119b0576000815560010161199c565b5090565b6001600160e01b03198116811461069b57600080fd5b6000602082840312156119dc57600080fd5b813561090a816119b4565b60005b83811015611a025781810151838201526020016119ea565b50506000910152565b60008151808452611a238160208601602086016119e7565b601f01601f19169290920160200192915050565b60208152600061090a6020830184611a0b565b600060208284031215611a5c57600080fd5b5035919050565b80356001600160a01b0381168114611a7a57600080fd5b919050565b60008060408385031215611a9257600080fd5b611a9b83611a63565b946020939093013593505050565b600080600060608486031215611abe57600080fd5b611ac784611a63565b9250611ad560208501611a63565b929592945050506040919091013590565b634e487b7160e01b600052604160045260246000fd5b604051601f8201601f1916810167ffffffffffffffff81118282101715611b2557611b25611ae6565b604052919050565b600067ffffffffffffffff821115611b4757611b47611ae6565b5060051b60200190565b60008067ffffffffffffffff841115611b6c57611b6c611ae6565b50601f8301601f1916602001611b8181611afc565b915050828152838383011115611b9657600080fd5b828260208301376000602084830101529392505050565b600082601f830112611bbe57600080fd5b61090a83833560208501611b51565b600082601f830112611bde57600080fd5b8135611bf1611bec82611b2d565b611afc565b8082825260208201915060208360051b860101925085831115611c1357600080fd5b602085015b83811015611c5557803567ffffffffffffffff811115611c3757600080fd5b611c46886020838a0101611bad565b84525060209283019201611c18565b5095945050505050565b60008060408385031215611c7257600080fd5b823567ffffffffffffffff811115611c8957600080fd5b8301601f81018513611c9a57600080fd5b8035611ca8611bec82611b2d565b8082825260208201915060208360051b850101925087831115611cca57600080fd5b6020840193505b82841015611cf357611ce284611a63565b825260209384019390910190611cd1565b9450505050602083013567ffffffffffffffff811115611d1257600080fd5b611d1e85828601611bcd565b9150509250929050565b600060208284031215611d3a57600080fd5b61090a82611a63565b60008060408385031215611d5657600080fd5b611d5f83611a63565b915060208301358015158114611d7457600080fd5b809150509250929050565b60008060008060808587031215611d9557600080fd5b611d9e85611a63565b9350611dac60208601611a63565b925060408501359150606085013567ffffffffffffffff811115611dcf57600080fd5b8501601f81018713611de057600080fd5b611def87823560208401611b51565b91505092959194509250565b60008060408385031215611e0e57600080fd5b611e1783611a63565b9150602083013567ffffffffffffffff811115611e3357600080fd5b611d1e85828601611bad565b60008060408385031215611e5257600080fd5b611e5b83611a63565b9150611e6960208401611a63565b90509250929050565b600181811c90821680611e8657607f821691505b602082108103611ea657634e487b7160e01b600052602260045260246000fd5b50919050565b6020808252602d908201527f4552433732313a2063616c6c6572206973206e6f7420746f6b656e206f776e6560408201526c1c881bdc88185c1c1c9bdd9959609a1b606082015260800190565b634e487b7160e01b600052603260045260246000fd5b60208082526025908201527f4552433732313a207472616e736665722066726f6d20696e636f72726563742060408201526437bbb732b960d91b606082015260800190565b60208082526032908201527f4552433732313a207472616e7366657220746f206e6f6e20455243373231526560408201527131b2b4bb32b91034b6b83632b6b2b73a32b960711b606082015260800190565b60008351611fb88184602088016119e7565b835190830190611fcc8183602088016119e7565b01949350505050565b601f82111561050957806000526020600020601f840160051c81016020851015611ffc5750805b601f840160051c820191505b818110156115c15760008155600101612008565b815167ffffffffffffffff81111561203657612036611ae6565b61204a816120448454611e72565b84611fd5565b6020601f82116001811461207e57600083156120665750848201515b600019600385901b1c1916600184901b1784556115c1565b600084815260208120601f198516915b828110156120ae578785015182556020948501946001909201910161208e565b50848210156120cc5786840151600019600387901b60f8161c191681555b50505050600190811b01905550565b6001600160a01b038581168252841660208201526040810183905260806060820181905260009061210e90830184611a0b565b9695505050505050565b60006020828403121561212a57600080fd5b815161090a816119b4565b8181038181111561033557634e487b7160e01b600052601160045260246000fd5b634e487b7160e01b600052603160045260246000fdfea2646970667358221220e3d197f35505c31d959899902647ae665143ff57e68e9273a9acdee84aa86e0a64736f6c634300081a0033",
  "linkReferences": {},
  "deployedLinkReferences": {}
}